S00C000063616C632E7372656385
S11300000C94AB000C94C8000C94C8000C94C80069
S11300100C94C8000C94C8000C94C8000C94C8003C
S11300200C94C8000C94C8000C94C8000C94C8002C
S11300300C94C8000C94C8000C94C8000C94C8001C
S11300400C94C8000C94C8000C94C8000C94C8000C
S11300500C94C8006E616E00696E660000407A10F0
S1130060F35A00A0724E18090010A5D4E80000E865
S11300707648170000E40B54020000CA9A3B0000C3
S113008000E1F505000080969800000040420F0052
S11300900000A08601000000102700000000E80313
S11300A0000000006400000000000A0000000000DE
S11300B00100000000002C76D888DC674F0823DF9D
S11300C0C1DFAE59E1B1B796E5E3E453C63AE65170
S11300D0997696E8E6C28426EB898C9B62ED407C97
S11300E06FFCEFBC9C9F40F2BAA56FA5F490055A33
S11300F02AF75C936B6CF9676DC11BFCE0E40D4758
S1130100FEF520E6B500D0ED902E0300943577057A
S11301100080841E080000204E0A000000C80C3332
S11301203333330F986E12831141EF8D2114893BC1
S1130130E65516CFFEE6DB18D1844B381BF77C1D41
S1130140901DA4BBE424203284725E228100C9F194
S113015024ECA1E53D2711241FBECFE5D8E0DEBF86
S1130160CDBF10E0A0E6B0E0E8EBF4E102C00590FA
S11301700D92A839B107D9F720E0A8E9B0E001C091
S11301801D92A93BB207E1F70E94C3030C945A0ADB
S11301900C94000090E02FEF2BBB911102C0D89873
S11301A00BC0913011F4D99807C0923011F4DA9849
S11301B003C0933009F4DB9889B3807F803F29F032
S11301C029B3207F203FE1F74EC09F5F943021F791
S11301D040C0803B51F018F48037D9F508C0803D09
S11301E0D1F1803EB1F587E0089589E008958AE071
S11301F00895803B51F018F4803759F508C0803DCC
S113020061F1803E31F584E0089586E008958BE045
S11302100895803B51F018F48037D9F408C0803D2C
S1130220F1F0803EB1F481E0089583E008958CE01C
S11302300895803B51F018F4803759F408C0803D8C
S113024081F0803E31F48FE008958EE008958DE0D2
S1130250089580E0089588E0089585E0089582E097
S1130260089580E308959230A1F2933011F3913010
S113027009F0AFCFBECF80FF02C0C09A01C0C098C2
S113028081FF02C0C19A01C0C19882FF02C0C29A14
S113029001C0C29883FF02C0C39A0895C398089509
S11302A0811102C0C5980895813009F4C59A089552
S11302B0C49A87EC90E00197F1F700C00000C4985D
S11302C08FEC97E00197F1F700C00000089587B321
S11302D08F6387BB0895CF93C82F80E00E9450019D
S11302E08C2F0E943B01CF910C9458010E9467010E
S11302F080E00E946B0182E00E946B0182E00E9418
S11303006B0188E00E946B0180E00E946B018CE02D
S11303100E946B0180E00E946B0186E00C946B01EB
S1130320CF93C82FC59A82958F700E943B010E947B
S113033058018C2F8F700E943B01CF910C9458016F
S1130340CF93C62F811102C088E003C0813039F4F5
S11303508CE00E946B018C2FCF910C946B01CF9198
S1130360089580E00E946B0181E00E946B0180E0AF
S11303700E946B0182E00C946B010F931F93CF9347
S1130380DF9300D0CDB7DEB749835A830E94A00122
S11303904981042F5A81152F02C00E949001F8014F
S11303A081918F018111F9CF0F900F90DF91CF913F
S11303B01F910F910895823529F481E00E946B0109
S11303C088E006C08C3431F481E00E946B018CE03B
S11303D00C946B0108958FE08ABB0C947601809194
S11303E09800909199008D30910561F410929900D4
S11303F01092980081E090E090939B0080939A0083
S11304008BE20EC08C30910571F410929900109219
S1130410980082E090E090939B0080939A008DE294
S113042080939C0008958B30910561F4109299009B
S11304301092980083E090E090939B0080939A0040
S113044088E7EECF8A30910561F4109299001092FA
S1130450980084E090E090939B0080939A008FE250
S1130460DFCF8E30910559F41092990010929800C4
S113047085E090E090939B0080939A0008958033E8
S1130480910529F4109299001092980008950F97FD
S113049011F51092B5001092B6001092B7001092A8
S11304A0B8001092B1001092B2001092B3001092F2
S11304B0B40010929D0010929E0010929F00109222
S11304C0A00010929B0010929A0010929900109232
S11304D098000C94B1010895CF92DF92EF92FF92AD
S11304E080919A0090919B00009799F52091B50016
S11304F03091B6004091B7005091B800AAE0B0E046
S11305000E9472082091980030919900620F731F25
S1130510811D911D6093B5007093B6008093B70060
S11305209093B8009F938F937F936F9386E690E0A8
S11305309F938F9381EA90E09F938F930E94DA09AF
S11305408DB79EB708960FB6F8949EBF0FBE8DBFA9
S113055049C09C01215031092430310508F04CC0B8
S11305602091B1003091B2004091B3005091B40099
S1130570AAE0B0E00E94720820919800309199009E
S1130580620F731F811D911D6093B1007093B200BF
S11305908093B3009093B4009F938F937F936F9352
S11305A080919C001F928F938091B8008F938091CB
S11305B0B7008F938091B6008F938091B5008F938D
S11305C080E690E09F938F9381EA90E09F938F93CE
S11305D00E94DA098DB79EB70E960FB6F8949EBFA7
S11305E00FBE8DBF41EA50E060E080E0FF90EF90E5
S11305F0DF90CF900C94BD01059709F0ADC08091B8
S11306009C008B32A9F46091B5007091B600809182
S1130610B7009091B800C090B100D090B200E090C3
S1130620B300F090B4006C0D7D1D8E1D9F1D2BC07A
S11306308D32A9F46091B5007091B6008091B70035
S11306409091B800C090B100D090B200E090B30097
S1130650F090B4006C197D098E099F0914C0883785
S1130660A9F42091B5003091B6004091B7005091A3
S1130670B8006091B1007091B2008091B300909184
S1130680B4000E9462080E9454041EC08F3221F5F7
S11306906091B5007091B6008091B7009091B80058
S11306A00E9454046B017C016091B1007091B2000E
S11306B08091B3009091B4000E9454049B01AC015A
S11306C0C701B6010E94EA0360939D0070939E00E7
S11306D080939F009093A0008091A0008F938091BD
S11306E09F008F9380919E008F9380919D008F93A4
S11306F08BE690E09F938F9381EA90E09F938F9392
S11307000E94DA0941EA50E060E081E00E94BD0104
S11307101092B5001092B6001092B7001092B80073
S11307201092B1001092B2001092B3001092B40073
S113073010929D0010929E0010929F001092A000B3
S113074010929B0010929A008DB79EB708960FB630
S1130750F8949EBF0FBE8DBFFF90EF90DF90CF90B7
S113076008950E94CA0090E09093990080939800A5
S1130770892B41F00E94EF010E946C0210929900B3
S11307801092980008950E94EB0141E750E060E068
S113079080E00E94BD0146E850E064E081E00E94F0
S11307A0BD012FEF80E792E0215080409040E1F7B7
S11307B000C00000C9E1D0E08FE19EE40197F1F7A9
S11307C000C000008CE40E94DB012197A9F70E947D
S11307D0B103FDCF0CD0BAC0B2D040F0A9D030F0F4
S11307E021F45F3F19F09BC05111E4C09EC0BFD0FB
S11307F098F39923C9F35523B1F3951B550BBB27E4
S1130800AA2762177307840738F09F5F5F4F220F90
S1130810331F441FAA1FA9F333D00E2E3AF0E0E889
S113082030D091505040E695001CCAF729D0FE2FD5
S113083027D0660F771F881FBB1F26173707480767
S1130840AB07B0E809F0BB0B802DBF01FF2793581D
S11308505F4F2AF09E3F510568F061C0ABC05F3F17
S1130860ECF3983EDCF3869577956795B795F79505
S11308709F5FC9F7880F911D9695879597F90895FD
S1130880E1E0660F771F881FBB1F62177307840799
S1130890BA0720F0621B730B840BBA0BEE1F88F7A8
S11308A0E0950895E89409C097FB3EF490958095EF
S11308B0709561957F4F8F4F9F4F9923A9F0F92F22
S11308C096E9BB279395F695879577956795B795A0
S11308D0F111F8CFFAF4BB0F11F460FF1BC06F5F86
S11308E07F4F8F4F9F4F16C0882311F096E911C098
S11308F0772321F09EE8872F762F05C0662371F0B9
S113090096E8862F70E060E02AF09A95660F771FCC
S1130910881FDAF7880F9695879597F9089597F9C0
S11309209F6780E870E060E008959FEF80EC089591
S113093000240A94161617061806090608950024BA
S11309400A9412161306140605060895092E039434
S1130950000C11F4882352F0BB0F40F4BF2B11F4A8
S113096060FF04C06F5F7F4F8F4F9F4F089557FD07
S11309709058440F551F59F05F3F71F04795880F09
S113098097FB991F61F09F3F79F0879508951216A0
S113099013061406551FF2CF4695F1DF08C016164C
S11309A017061806991FF1CF8695710561050894FD
S11309B00895E894BB2766277727CB0197F9089514
S11309C0A2E1B0E0E6EEF4E00C947D087C011B01AA
S11309D06A01FC0117821682838181FD03C06BC307
S11309E0650105C088248394912C8C0E9D1EF7010B
S11309F09381F10193FD859193FF81911F018823D8
S1130A0009F455C3853239F493FD859193FF81919F
S1130A101F01853231F4B70190E00E94AE095601FE
S1130A20DFCF712C612C20E02032A8F48B3261F0EE
S1130A3028F4803251F0833271F40BC08D3239F0D6
S1130A40803349F4216028C02260246025C02860D6
S1130A5023C0206121C027FD27C0382F30533A30EE
S1130A6078F426FF06C0FAE07F9E300D1124732E21
S1130A7013C04AE0649E300D1124632E20620CC022
S1130A808E3221F426FD13C3206406C08C3611F483
S1130A90206802C0883641F4F10193FD859193FFEB
S1130AA081911F018111C0CF982F9554933018F470
S1130AB02061805E06C0982F9556933008F0A4C13B
S1130AC02F7E26FD02C016E0712EBFE35B2E52225C
S1130AD0853619F4F0E45F2A07C0863619F440E835
S1130AE0542A02C071107A9457FE07C05BE357156D
S1130AF048F0472C439427E00DC087E0871530F079
S1130B00272D07C027E0ACE34A2E04C027E0F7E016
S1130B107F2E412C560194E0A90EB11CF601608190
S1130B20718182819381042DA4010E94C0088C01EB
S1130B3049814C8740FF02C043FF07C051FC08C0F5
S1130B4052FE09C0E0E2DE2E07C07DE2D72E04C0CB
S1130B506BE2D62E01C0D12C8C858C70A1F1DD20E6
S1130B6011F084E001C083E0861510F0612C0BC005
S1130B70681A53FC08C0B70180E290E00E94AE09F5
S1130B806A94C9F7F3CFDD2029F0B7018D2D90E0E9
S1130B900E94AE095C8553FD03C008E510E00CC05B
S1130BA004E510E009C051108052B70190E00E94A2
S1130BB0AE090F5F1F4F02C080E15822F8018491F3
S1130BC08111F1CF71C257FE0EC0400E4C8544FF17
S1130BD004C08A81813309F44A9414144CF558E012
S1130BE0541548F12CC056FC2AC0872D90E080177C
S1130BF0910744F00C3F8FEF180724F090E8592A2E
S1130C0001C07A94772049F0E2E0F0E0EC0FFD1F98
S1130C10E70DF11D80818033A1F357FE10C0472CEE
S1130C204394872D90E00817190744F4701A07C0FD
S1130C304424439404C058E0452E01C0712C57FE4F
S1130C4007C0101611063CF498012F5F3F4F05C0F2
S1130C5025E030E002C021E030E0DD2011F02F5F1C
S1130C603F4F772031F0472D50E04F5F5F4F240F07
S1130C70351F462D50E02417350714F4621A01C0BD
S1130C80612C852D897049F406C0B70180E290E09B
S1130C900E94AE096A946110F8CFDD2029F0B701F3
S1130CA08D2D90E00E94AE0953FC09C006C0B70127
S1130CB080E390E00E94AE096A946110F8CF57FE79
S1130CC056C0680117FF02C0C12CD12C20E030E0CF
S1130CD0A801441951095E874D8728014C185D0805
S1130CE0480C591C872D90E044275527481B590B65
S1130CF0588B4F875FEFC516D50649F4B7018EE2CE
S1130D0090E02A8B398B0E94AE0939892A890C1507
S1130D101D0554F04D855E854C155D052CF4F201DE
S1130D20E20FF31F818101C080E351E0C51AD108AD
S1130D302F5F3F4F4F855889C416D5064CF0B70135
S1130D4090E02A8B398B0E94AE092A893989D2CF47
S1130D50C016D10649F49A81963328F4953321F4C8
S1130D605C8554FD01C081E3B70190E04AC08A81EB
S1130D70813319F04C854F7E4C87B70190E00E9477
S1130D80AE09711005C054FE16C085E490E015C08C
S1130D90B7018EE290E00E94AE0942E0D42EF40145
S1130DA0ED0DF11DD394B701808190E00E94AE094E
S1130DB07A94A9F7E8CF85E690E0B7010E94AE09DE
S1130DC017FD06C00115110541F45C8554FF05C0EB
S1130DD01195019511098DE201C08BE2B70190E0F4
S1130DE00E94AE0980E303C08F5F0A5011090A30E4
S1130DF01105D4F7B70190E00E94AE09B701C8010C
S1130E00C0960E94AE0950C1833631F0833781F019
S1130E10833509F05EC024C0560182E0A80EB11CDF
S1130E20F60180818983CC24C394D12C840114C01D
S1130E305601F2E0AF0EB11CF6010081118126FFCC
S1130E4003C0672D70E002C06FEF7FEFC8012A8BEB
S1130E500E94A3096C012A899FE7592E522217C0C8
S1130E605601F2E0AF0EB11CF6010081118126FF9C
S1130E7003C0672D70E002C06FEF7FEFC8012A8BBB
S1130E800E9498096C012A8980E8582E522A53FC42
S1130E901CC006C0B70180E290E00E94AE096A94CB
S1130EA0862D90E0C816D906A8F30FC0F80157FCA8
S1130EB0859157FE81918F01B70190E00E94AE09A0
S1130EC061106A94F1E0CF1AD108C114D10471F70A
S1130ED0EBC0843611F0893651F5560127FF09C05D
S1130EE044E0A40EB11CF60160817181828193817A
S1130EF00AC0F2E0AF0EB11CF6016081718188274F
S1130F0077FD8095982F122F1F7697FF08C0909534
S1130F108095709561957F4F8F4F9F4F10682AE0A1
S1130F2030E0A4010E94FC09D82ED81840C0122F2A
S1130F30853721F41F7E2AE030E01FC0197F8F36E9
S1130F40A1F020F4883509F0B2C00BC0803721F03D
S1130F50883709F0ACC001C0106114FF09C01460E7
S1130F6007C024FF08C0166006C028E030E005C0B2
S1130F7020E130E002C020E132E0560117FF09C051
S1130F80F4E0AF0EB11CF60160817181828193811E
S1130F9008C0F2E0AF0EB11CF6016081718180E0FF
S1130FA090E0A4010E94FC09D82ED8181F7716FFE0
S1130FB00BC0212F2E7FD71450F414FF0AC012FD4A
S1130FC008C0212F2E7E05C00D2D212F03C00D2D0D
S1130FD001C0072D24FF0CC0FE01ED0DF11D808121
S1130FE0803311F4297E08C022FF05C00E5F04C0BF
S1130FF0822F867809F00F5F23FD14C020FF0FC0F5
S11310007D2C061560F4760C701A062D08C0B70105
S113101080E290E02A8B0E94AE090F5F2A890615B0
S1131020B0F304C0061510F4601A01C0612C24FF4B
S113103012C0B70180E390E02A8B0E94AE092A898E
S113104022FF1EC021FF03C088E590E002C088E7AC
S113105090E0B7010CC0822F867891F021FD02C088
S113106080E201C08BE227FD8DE2B70190E00E948F
S1131070AE0906C0B70180E390E00E94AE097A94FD
S1131080D714C0F3DA94F401ED0DF11DB70180819A
S113109090E00E94AE09D110F5CF06C0B70180E2FE
S11310A090E00E94AE096A946110F8CF99CCF701E0
S11310B02681378102C02FEF3FEFC9016296E2E13A
S11310C00C949908DB018F939F930E947208BF913F
S11310D0AF91A29F800D911DA39F900DB29F900D83
S11310E0112408950E94B408A59F900DB49F900DFB
S11310F0A49F800D911D112408952F923F924F9229
S11311005F926F927F928F929F92AF92BF92CF9293
S1131110DF92EF92FF920F931F93CF93DF93CDB79C
S1131120DEB7CA1BDB0B0FB6F894DEBF0FBECDBF14
S113113009942A88398848885F846E847D848C84E5
S11311409B84AA84B984C884DF80EE80FD800C81EE
S11311501B81AA81B981CE0FD11D0FB6F894DEBFD1
S11311600FBECDBFED010895A29FB001B39FC00192
S1131170A39F01D0B29F700D811D1124911D08956C
S1131180283008F027E03327DA01990F311D87FD55
S1131190916000966105710539F432602E5F3D93CC
S11311A030E32A95E1F708959F3F30F080387105C8
S11311B0610509F03C5F3C5F3D93913008F0806825
S11311C0911DDF93CF931F930F93FF92EF92192FEB
S11311D0987F9695E92F96959695E90FFF27EA54FF
S11311E0FF4F99273327EE24FF24A701E701059039
S11311F00894079428F4360FE71EF81E491F511D62
S1131200660F771F881F991F0694A1F7059007940E
S113121028F4E70EF81E491F561FC11D770F881FBB
S1131220991F661F0694A1F70590079428F4F80EF9
S1131230491F561FC71FD11D880F991F661F771F8F
S11312400694A1F70590079420F4490F561FC71F71
S1131250D81F990F661F771F881F0694A9F78491DA
S11312601095177041F0D695C79557954795F79403
S1131270E7941A95C1F7ECE5F0E0689415901591A0
S113128035916591959105907FE27395E118F10A86
S1131290430B560BC90BD009C0F7E10CF11E431FD9
S11312A0561FC91FD01D7EF4703311F48A95E6CF02
S11312B0E894015030F0080F0AF40027021708F4EC
S11312C0202F2395022F7A3328F079E37D932A95F2
S11312D0E9F710C07D932A9589F60694979567954A
S11312E0379517951794E118F10A430B560BC90B60
S11312F0D00998F023957E9173957A3308F070E3C2
S11313007C932013B8F77E9170617D9330F08395C0
S113131071E37D9370E32A95E1F71124EF90FF9038
S11313200F911F91CF91DF91992787FD9095089593
S1131330FC010590615070400110D8F7809590959C
S11313408E0F9F1F0895FC016150704001900110A1
S1131350D8F7809590958E0F9F1F08950F931F9334
S1131360CF93DF938C01EB018B8181FD03C00FEFE1
S11313701FEF1AC082FF0DC02E813F818C819D8199
S11313802817390764F4E881F9810193F983E88324
S113139006C0E885F985802F0995892B41F78E8150
S11313A09F8101969F838E83C801DF91CF911F9106
S11313B00F910895AEE0B0E0E0EEF9E00C948B08F4
S11313C00D891E8986E08C831A8309838FEF9FE73A
S11313D09E838D83CE014996AC016F89788DCE01B1
S11313E001960E94E004EF81F885E00FF11F10825E
S11313F02E96E4E00C94A708FA01AA27283051F1AC
S1131400203181F1E8946F936E7F6E5F7F4F8F4F31
S11314109F4FAF4FB1E03ED0B4E03CD0670F781F90
S1131420891F9A1FA11D680F791F8A1F911DA11D75
S11314306A0F711D811D911DA11D20D009F46894AE
S11314403F912AE0269F11243019305D3193DEF656
S1131450CF010895462F4770405D4193B3E00FD00C
S1131460C9F7F6CF462F4F70405D4A3318F0495DF7
S113147031FD4052419302D0A9F7EACFB4E0A695DA
S11314809795879577956795BA95C9F700976105FC
S1131490710508959B01AC010A2E06945795479552
S11314A037952795BA95C9F7620F731F841F951F47
S10B14B0A01D0895F894FFCF7C
S11314B825316C69256325316C69003D252E32661A
S11314C8005768656E202020202020436F6D65201A
S11314D82020203B2900447265616D732020202060
S10B14E854727565203B2900D4
S9030000FC
